:020000040000fa
:080000000002040000000000f2
:020000040000fa
:0400080012060000dc
:020000040000fa
:04000c00dc02000012
:020000040000fa
:040010001e030000cb
:020000040000fa
:04001400fc020000ea
:020000040000fa
:040018003e030000a3
:020000040000fa
:04001c0012060000c8
:020000040000fa
:0400200012060000c4
:020000040000fa
:0400240012060000c0
:020000040000fa
:0400280012060000bc
:020000040000fa
:04002c0012060000b8
:020000040000fa
:0400300012060000b4
:020000040000fa
:0400340012060000b0
:020000040000fa
:0400380012060000ac
:020000040000fa
:04003c0012060000a8
:020000040000fa
:0400400012060000a4
:020000040000fa
:0400440012060000a0
:020000040000fa
:04004800120600009c
:020000040000fa
:04004c001206000098
:020000040000fa
:040050001206000094
:020000040000fa
:040054001206000090
:020000040000fa
:04005800120600008c
:020000040000fa
:04005c001206000088
:020000040000fa
:040060001206000084
:020000040000fa
:040064001206000080
:020000040000fa
:04006800120600007c
:020000040000fa
:04006c008c03000001
:020000040000fa
:040070001206000074
:020000040000fa
:040074005e03000027
:020000040000fa
:04007800120600006c
:020000040000fa
:04007c001206000068
:020000040000fa
:040080001206000064
:020000040000fa
:040084001206000060
:020000040000fa
:04008800120600005c
:020000040000fa
:04008c001206000058
:020000040000fa
:040090001206000054
:020000040000fa
:040094001206000050
:020000040000fa
:04009800120600004c
:020000040000fa
:04009c001206000048
:020000040000fa
:0400a0001206000044
:020000040000fa
:0400a4001206000040
:020000040000fa
:0400a800120600003c
:020000040000fa
:0400ac001206000038
:020000040000fa
:0400b0001206000034
:020000040000fa
:0400b4001206000030
:020000040000fa
:0400b800120600002c
:020000040000fa
:0400bc001206000028
:020000040000fa
:0400c0001206000024
:020000040000fa
:0400c4001206000020
:020000040000fa
:0400c800120600001c
:020000040000fa
:0400cc001206000018
:020000040000fa
:0400d0001206000014
:020000040000fa
:0400d4001206000010
:020000040000fa
:0400d800120600000c
:020000040000fa
:0400dc001206000008
:020000040000fa
:0400e0001206000004
:020000040000fa
:0400e4001206000000
:020000040000fa
:0400e80012060000fc
:020000040000fa
:0400ec0012060000f8
:020000040000fa
:0400f00012060000f4
:020000040000fa
:0400f40012060000f0
:020000040000fa
:0400f80012060000ec
:020000040000fa
:0400fc0012060000e8
:020000040000fa
:0401000012060000e3
:020000040000fa
:0401040012060000df
:020000040000fa
:0401080012060000db
:020000040000fa
:04010c0012060000d7
:020000040000fa
:0401100012060000d3
:020000040000fa
:0401140012060000cf
:020000040000fa
:0401180012060000cb
:020000040000fa
:04011c0012060000c7
:020000040000fa
:0401200012060000c3
:020000040000fa
:0401240012060000bf
:020000040000fa
:0401280012060000bb
:020000040000fa
:04012c0012060000b7
:020000040000fa
:0401300012060000b3
:020000040000fa
:0401340012060000af
:020000040000fa
:0401380012060000ab
:020000040000fa
:04013c0012060000a7
:020000040000fa
:0401400012060000a3
:020000040000fa
:04014400120600009f
:020000040000fa
:04014800120600009b
:020000040000fa
:04014c001206000097
:020000040000fa
:040150001206000093
:020000040000fa
:04015400120600008f
:020000040000fa
:04015800120600008b
:020000040000fa
:04015c001206000087
:020000040000fa
:040160001206000083
:020000040000fa
:04016400120600007f
:020000040000fa
:04016800120600007b
:020000040000fa
:0402080012060000da
:020000040000fa
:04020c00dc02000010
:020000040000fa
:040210001e030000c9
:020000040000fa
:04021400fc020000e8
:020000040000fa
:040218003e030000a1
:020000040000fa
:04021c0012060000c6
:020000040000fa
:0402200012060000c2
:020000040000fa
:0402240012060000be
:020000040000fa
:0402280012060000ba
:020000040000fa
:04022c0012060000b6
:020000040000fa
:0402300012060000b2
:020000040000fa
:0402340012060000ae
:020000040000fa
:0402380012060000aa
:020000040000fa
:04023c0012060000a6
:020000040000fa
:0402400012060000a2
:020000040000fa
:04024400120600009e
:020000040000fa
:04024800120600009a
:020000040000fa
:04024c001206000096
:020000040000fa
:040250001206000092
:020000040000fa
:04025400120600008e
:020000040000fa
:04025800120600008a
:020000040000fa
:04025c001206000086
:020000040000fa
:040260001206000082
:020000040000fa
:04026400120600007e
:020000040000fa
:04026800120600007a
:020000040000fa
:04026c008c030000ff
:020000040000fa
:040270001206000072
:020000040000fa
:040274005e03000025
:020000040000fa
:04027800120600006a
:020000040000fa
:04027c001206000066
:020000040000fa
:040280001206000062
:020000040000fa
:04028400120600005e
:020000040000fa
:04028800120600005a
:020000040000fa
:04028c001206000056
:020000040000fa
:040290001206000052
:020000040000fa
:04029400120600004e
:020000040000fa
:04029800120600004a
:020000040000fa
:04029c001206000046
:020000040000fa
:0402a0001206000042
:020000040000fa
:0402a400120600003e
:020000040000fa
:0402a800120600003a
:020000040000fa
:0402ac001206000036
:020000040000fa
:0402b0001206000032
:020000040000fa
:0402b400120600002e
:020000040000fa
:0402b800120600002a
:020000040000fa
:0402bc001206000026
:020000040000fa
:0402c0001206000022
:020000040000fa
:0402c400120600001e
:020000040000fa
:0402c800120600001a
:020000040000fa
:0402cc001206000016
:020000040000fa
:0402d0001206000012
:020000040000fa
:0402d400120600000e
:020000040000fa
:0402d800120600000a
:020000040000fa
:0402dc001206000006
:020000040000fa
:0402e0001206000002
:020000040000fa
:0402e40012060000fe
:020000040000fa
:0402e80012060000fa
:020000040000fa
:0402ec0012060000f6
:020000040000fa
:0402f00012060000f2
:020000040000fa
:0402f40012060000ee
:020000040000fa
:0402f80012060000ea
:020000040000fa
:0402fc0012060000e6
:020000040000fa
:0403000012060000e1
:020000040000fa
:0403040012060000dd
:020000040000fa
:0403080012060000d9
:020000040000fa
:04030c0012060000d5
:020000040000fa
:0403100012060000d1
:020000040000fa
:0403140012060000cd
:020000040000fa
:0403180012060000c9
:020000040000fa
:04031c0012060000c5
:020000040000fa
:0403200012060000c1
:020000040000fa
:0403240012060000bd
:020000040000fa
:0403280012060000b9
:020000040000fa
:04032c0012060000b5
:020000040000fa
:0403300012060000b1
:020000040000fa
:0403340012060000ad
:020000040000fa
:0403380012060000a9
:020000040000fa
:04033c0012060000a5
:020000040000fa
:0403400012060000a1
:020000040000fa
:04034400120600009d
:020000040000fa
:040348001206000099
:020000040000fa
:04034c001206000095
:020000040000fa
:040350001206000091
:020000040000fa
:04035400120600008d
:020000040000fa
:040358001206000089
:020000040000fa
:04035c001206000085
:020000040000fa
:040360001206000081
:020000040000fa
:04036400120600007d
:020000040000fa
:040368001206000079
:020000040000fa
:100400004f8b20000eff20000e018800000000002e
:10041000000020000000e000020032000001200087
:1004200020028800140007004c0207000000e000d2
:1004300003003a0040522100010020000200370072
:100440000000200001002000810f70000100320038
:1004500014000700000020000000e000020032004d
:1004600000000200000000000e1602000000000064
:100470000040da000000fe004440a900a003200074
:100480000000e0000300320000002000a00188000e
:100490004440a800000006008a1f78008b1f7800e7
:1004a0000000060091018800800478000000eb0045
:1004b0001a003700e284440032a0b4009905ba0063
:1004c000e284440032a0b4009906ba00e2844400f9
:1004d00032a0b4000006eb00476fde00fd07b2005b
:1004e000636ce10003003a00ebff07000000eb0043
:1004f0000a003700606ce10004003a00005deb0088
:100500008b05e900fdff3e00040037006168e10053
:10051000010032000086eb000b00070019c7ba008b
:100520001905ba000e04e00003003a000a00e000da
:10053000e0ff3a0000000600fe07b2009e018800be
:100540008a047800f5ff3700395dba008b05e900b1
:100550000c003200295dba008b05e900080032006a
:100560000c00e00003003a00e284440032a0b40032
:10057000f5ff370019ddba008b05e900faff3a00f4
:100580008904e800e184440032a0b40000000600c1
:10059000000000000000000000000000000000005b
:1005a000000000000000000000000000000000004b
:1005b00000000000000000003600f800809fbe0030
:1005c000829fbe00849fbe00869fbe000000fa008e
:1005d0008020a9000000eb00e50907000080fa0078
:1005e0004f03be004f02be004f01be004f00be00d1
:1005f0003600f900004006003600f800809fbe007b
:10060000829fbe00849fbe00869fbe000000fa004d
:10061000dc0907008040a90010002000d409070071
:100620000080fa004f03be004f02be004f01be0023
:100630004f00be003600f900004006003600f8000a
:10064000809fbe00829fbe00849fbe00869fbe002a
:100650000000fa008060a90020002000c409070003
:100660000080fa004f03be004f02be004f01be00e3
:100670004f00be003600f900004006003600f800ca
:10068000809fbe00829fbe00849fbe00869fbe00ea
:100690000000fa008080a90030002000b4090700a3
:1006a0000080fa004f03be004f02be004f01be00a3
:1006b0004f00be003600f900004006003600f8008a
:1006c000809fbe00829fbe00849fbe00869fbe00aa
:1006d0000000fa0030048000680060000000e000c4
:1006e00006003200704280000000e000020032008c
:1006f00070428000000001008660a9000080fa00be
:100700004f03be004f02be004f01be004f00be00af
:100710003600f900004006003600f800809fbe0059
:10072000829fbe00849fbe00869fbe000000fa002c
:100730008620a90041108000000820000080600091
:100740000000e0000900320008e2a9000e28ef00d6
:10075000a040800064004000100078008000eb00a2
:10076000010878001428ef0027013700704080004e
:100770008000eb00b200200003002000820f500038
:10078000838f580014013e00006001000b00370009
:100790004700370087003700b00037000b013700f3
:1007a000de003700f100370008013700f3003700a2
:1007b00009013700420037006000370060802000e8
:1007c0006400400010007800620060000000e0005b
:1007d0000c013a00608020000080e80010007800e2
:1007e000a0408800608020000080e80010007800b1
:1007f0001040780010e8b700608020000080e8001a
:10080000100078000080e800100078009040880018
:10081000608020000080e80010007800e6004000c2
:10082000608020000080e8000108780060802000df
:100830000080e8009000780060802000808f5000e9
:1008400004003a0060802000018020000080e80061
:100850000108780060802000e400400091007800ea
:100860000100a100640040000108780060802000c1
:100870000080e80090007800608020001000780080
:10088000808f500006003a0060802000e4004000a5
:10089000910078000110a000640040000108780079
:1008a0000602a8002000200070408800d600370013
:1008b0000622a8002000200070408800d2003700e7
:1008c0004110800000002800008060000000e0006f
:1008d0000a0032006080200066004000104078006e
:1008e0008040e800608020006600400001487800f9
:1008f0004000200012060700c300370010418000ae
:100900008000d100f00f20000080600010108800ef
:100910001041800061006000004078000004e000a9
:1009200003003200b000200070408800b60037009d
:100930003000200070408800b30037004110800074
:1009400000002800008060000000e0000a00320083
:100950006080200066004000104078008040e80081
:1009600060802000660040000148780040002000c0
:10097000f3050700a40037000622a80010418000fc
:100980004800de00e6006000000f2000010070005b
:1009900010418800104180000000a0001041880034
:1009a00010c0b30024e8b700200020007040880089
:1009b0009500370024c8bf00e14f50000c00320002
:1009c0009040800010007800104188009040800026
:1009d00064004000100078003041880090408000a2
:1009e0000080e8001040780028e8b70001003700d8
:1009f0002468ef0011418000f00f2000808f50002c
:100a000009003600104180004800de00e60060006a
:100a1000000f20000100700010108800a0002000ce
:100a20007040880078003700104180001010880066
:100a30001041800061006000004078000004e00088
:100a40000300320050002000704088006e00370024
:100a500030002000704088006b003700411080009b
:100a600000002800008060000000e0000b00320061
:100a70006080200066004000104078008040e80060
:100a800060802000660040000148780009e2a9006b
:100a900050002000aa0507005b00370028c8bf00ef
:100aa0008080fb008100e900cf08de0081407800f3
:100ab0000040e90028e8b7000104e000100032001f
:100ac00090408000660040009040880010c8bf0041
:100ad0000040e90010e8b70010c8bf000004e000c3
:100ae00003003a002000200095050700460037006b
:100af0000622a80020002000704088004200370035
:100b000030418000904078008180fb001110880007
:100b10000000e800304188003b00370041108000b1
:100b200000002800008060000000e0000b003200a0
:100b30006080200066004000104078008040e8009f
:100b400060802000660040000148780040002000de
:100b50007b05070009e2a9002b0037000662a80008
:100b600080002000704088002700370080002000af
:100b7000704088000662a8002300370030418000e2
:100b80000110800081407800014878000000e800f2
:100b90003041880028c8bf000040e90028e8b700bd
:100ba00028c8bf000004e0000400320006a2a9002b
:100bb00060002000704088000200370006a2a800f4
:100bc0004e0507000682a8000f0037002000200015
:100bd0005b0507000c0037006080200066004000c5
:100be000104078008040e8006080200066004000ef
:100bf0000148780060002000510507000000000057
:100c000001003700000000000080fa004f03be0022
:100c10004f02be004f01be004f00be003600f9007b
:100c2000004006000040da000000fe00ec874700ac
:100c30008e1f78006c87570044002000041f780046
:100c4000000f78006c87570002afbe00e1bf9f0025
:100c50006c805700e00407001e00be004f077800bc
:100c6000cf00b10000000600ec8747008e1f78001f
:100c700011002000a1bf9f006c875700002f780053
:100c80006c805700d60407001e0078004f077800dc
:100c9000cf00b100000006000800fa008e81e800d5
:100ca000800978006400470001087800660047006a
:100cb0000208780066004700100f78002000370017
:100cc0004ac8bf000080fb00e10f50000300320063
:100cd000e20f50000b0032000e00370064004700a6
:100ce0001000780010407800e40047009100780080
:100cf0000101e800e4004700820878006c06070064
:100d00000e003700640047001000780010407800a3
:100d10006706070064004700100078001040780064
:100d2000e4004700910078000101e800e40047007a
:100d30008208780002060700000000001e0fe9008c
:100d40001e0078000000e000ddff3a00660047006a
:100d5000100078000080fa00000006000000050086
:100d60000000fa00cfb8970068815700a0428000c9
:100d7000100078003a0007000080fa00000006002a
:100d80000d003700a1428000910078002902070081
:100d9000110020000000e00005003500a0428000a6
:100da00090007800a0002000d0020700cf00de00f5
:100db0000100ea0000000600ea874700889fbe00a5
:100dc0008a9fbe008e1f7800000478000300780020
:100dd0007287570084e2260055c72600049fbe0094
:100de000c3962200030f78006c875700004feb007a
:100df00011059000a1049000910578000200e00028
:100e000002003200020778000100370072875700a5
:100e10000000e00002003a000e007800bb0207006c
:100e20000a00e000030035008a0f50000100360080
:100e30000a0078000b027800890178000001780030
:100e40008e00780008007800270007004f07780020
:100e50004f05be004f04be00af00b1000000060009
:100e60000200fa00881f780000047800e2bf9f00ab
:100e70006481570008007800ce01070098009000b8
:100e80000148a300010032000080eb004f0478000d
:100e90000080fa0000000600889fbe008a1f7800cc
:100ea000800478004900900002047800800f54000c
:100eb0000100360000047800080178006a854400cb
:100ec0001a007800070207001a004400000d78009d
:100ed000e8844400990c14000048eb004f057800aa
:100ee0004f04be0000000600f2874700889fbe0046
:100ef0008a9fbe008c9fbe008e1f78008004780001
:100f0000010578000204780083057800610762001b
:100f100002003a008b0f54000800390008017800e5
:100f20008a00780009007800a60207008b0f5400a1
:100f300002003900880578001e0037000886550039
:100f40000c017800f00f560001003600020120006d
:100f5000010220007e805700e90107008c0678001e
:100f60000500370002012000fe80570009007800cc
:100f700094020700f0865600ef8f5600f9ff3e00fe
:100f80004461de0000ff2f000091b900020146001d
:100f9000fe805700090078008a0207000e00e0007a
:100fa00004003a00080178008a00780009007800ff
:100fb000840207000b0078004f0778004f06be0040
:100fc0004f05be004f04be002f01b1000000060017
:100fd0000000050000000500000005000001780089
:100fe0000040eb008080fb0081804000c38920002e
:100ff00063c278000404e00003003a00d0892000b6
:1010000060c078000000060092017800934f520003
:1010100004003a00d089200060c078000309e8008d
:10102000010037000040e800ea4f5000edff3600b5
:1010300000000600f6874700889fbe008a9fbe001a
:101040008c9fbe008e1f7800800478000104780019
:1010500083057800040678000000eb00c0b79f000d
:101060008080eb00d1b79f00e0b79f00f2b79f00f0
:101070000008200080bf9f009800780001007800e1
:101080000005eb00010037000a05e8003041780058
:101090000204e0000300320053c2b300834f51004a
:1010a000f9ff3a000a00e000040032000a0178006b
:1010b0000900780043020700180c45001807780063
:1010c00050c2b3009e4f100033013a000e07e800f3
:1010d0000e0c780010003700cfb097000100a00080
:1010e0000b003700cfb097000110a00008003700b8
:1010f000cfb097000120a00005003700cfb09700c7
:101100000130a00002003700cfb097000140a000de
:10111000c1b79f00000ce8001800780090407800ec
:10112000b2c2b30082cf5000f1ff320007003c0092
:1011300002c2b30082cf5000f0ff320032c2b300cf
:1011400082cf500007003a00efff3700d2c2b30051
:1011500082cf5000e0ff320002c3b30082cf5000c4
:10116000e0ff3200a2c2b30082cf50000d003a006f
:10117000000ce8001c80e900000e780010007800e8
:10118000e0b79f000000e0000f003d00cfb09700e7
:101190000100a200c1b79f000000ea00e0b79f0075
:1011a000090037006f020700e0b79f000100370019
:1011b000000ce800180078009000fb000103b1006b
:1011c000e98f5000faff36004fb097000008a300e7
:1011d000020032000010a100c0b79f001800780084
:1011e000e1c2b30090cf100016003a008000eb007f
:1011f000d1b79f000000e800000c7800a1c2b30046
:1012000090cf100006003a00000ce8001c80e900b6
:10121000000e780010007800d0b79f00090037005a
:1012200050020700d0b79f0001003700000ce80013
:10123000180078009000fb000103b100e98f500016
:10124000faff36000800780064ff07008046780047
:10125000180078001000fb006802070091062000cb
:10126000810f50003800320012003c00410620007f
:10127000810f5000340032000a003c0011062000ab
:10128000810f50002000320031062000810f5000f5
:101290009a00320051022000810f5000ae003a0047
:1012a000a700370071062000810f5000aa003c0003
:1012b0008200370001072000810f50005c003200df
:1012c00007003c00e1062000810f5000740032004e
:1012d000f1062000810f50009f003a0039003700ce
:1012e00051072000810f50002700320081072000a5
:1012f000810f50004200320031072000810f500062
:1013000095003a00850037008d80fb000c017800c5
:1013100000fe2f000f0040003f0207000000e00029
:101320009c00320018007800000ce8009041780022
:1013300002fe2f000f014100f880570009007800dd
:1013400024ff07000e0037008d80fb008c01780021
:101350001200200000fe2f000f0040004d02070089
:101360000000e0008b003200180ce80002fe2f00a5
:101370000f014100f88057000900780014ff0700b2
:1013800000054500840037008d80fb008c0178004b
:101390000001eb0000fe2f000f0040003d0207009f
:1013a0000000e0007b003200180ce80002fe2f0075
:1013b0000f014100f88057000900780004ff070082
:1013c000efff37008d80fb008c0178000001eb00ff
:1013d00000fe2f000f0040002e0207000000e0007a
:1013e0006c003200180ce80002fe2f000f014100d3
:1013f000f880570009007800f5fe0700e0ff37008d
:101400008d80fb008c0178000001eb0000fe2f00b6
:101410000f0040001f0207000000e0005d003200e6
:1014200018007800000ce8009041780016003700a2
:101430008c0178000001eb00010f200000fe2f005e
:101440000f004000130207000000e00051003200ce
:10145000180ce8000fb097009fb097002fb19700cd
:10146000bfb19700e00f5000e08f5800e00f590027
:10147000e08f590003003a008001eb0062892000f0
:101480004000370083c7b30002fe2f000f01410068
:10149000f880570009007800cefe0700b8ff37003b
:1014a0000b0145008d80fb008c01780000fe2f00b1
:1014b0000f00400050020700360037008d80fb000f
:1014c0000c01780000fe2f000f004000d201070041
:1014d0000000e0002f00320018007800000ce80047
:1014e0009041780002fe2f000f014100f880570064
:1014f00009007800b7fe0700a1ff370000c8b3005d
:1015000080cf560023003a00180ce8001c80e90048
:10151000000e7800104078000d00370000c8b300be
:1015200080cf56001b003a00180ce8001c80e90030
:10153000000e78008001eb001001780011003700e8
:1015400001c8b30081cf560012003a00180ce80021
:10155000e0df9f000800370050c2b300e0df9f00cb
:101560000e0c78000000eb00c0b79f00e0b79f00b2
:101570008080eb00d1b79f0013002000e2fd2f0018
:101580000f014100f8805700090078000afe0700ab
:101590007bff3700180ce8000a0078004f0778003e
:1015a0004f06be004f05be004f04be006f01b100e4
:1015b000000006008200fa00889fbe008a1f7800a3
:1015c0000005780082047800c13f9f000004eb0012
:1015d000100037000902780088017800a2f72f0078
:1015e0000f01410081f72f008f8040000a00780032
:1015f00090fe070008004000880f500004003d00e6
:10160000b0042000904588000084eb0004003700ff
:10161000000478004f3897001004e000edff3a0016
:10162000080078004f0578004f04be000080fa00e3
:1016300000000600889fbe008a1f780080047800a2
:101640000105780009007800b00007000004780068
:101650008a01780008017800110020000900780054
:101660000a000700800078000080eb00888f50009f
:1016700001003a000000eb004f0578004f04be0067
:10168000000006001000780083fd3700889fbe0030
:101690008a9fbe00810478000204780009c5b90061
:1016a0000900e00001003a000004eb000a017800a4
:1016b0008000780003007800f2ff070080007800c7
:1016c0008a8f500003003200110009008980d80081
:1016d00000047800080078004f05be004f04be00eb
:1016e000000006008001780002003700b159780040
:1016f0000201e9000200e000fcff3a0000000600e1
:10170000889fbe008a9fbe00800478000200e0002f
:101710005a00320001407800814c780082814400f8
:10172000f1f99f00e20f51005400360091449800f7
:10173000a1449800e1f99f00d1f99f00e60f510004
:101740004e003600b1449800c1f99f00e80f5100e7
:101750004a0036000905ea00630565000a84440072
:101760000a055100c1ff2f00010565000080fb0044
:101770008000eb0012102000131020001002070060
:10178000008cbe000a01440060b99f0071b99f003f
:10179000e80f550039003600200498003104980005
:1017a000400498005104980020b99f0031b99f006f
:1017b00040b99f0051b99f00f80f55002f00360027
:1017c0006004980071049800000c9800110c9800b7
:1017d000200c9800310c9800400c9800510c980097
:1017e00020b19f0031b19f0040b19f0051b19f00d7
:1017f00060b19f0071b19f0000b99f0011b99f00b7
:1018000064016400780141000204440002055500af
:101810006011b8000203be000002be000403be0057
:101820006022b80000007200818072000201730023
:10183000838173000f00370008027800009abe0011
:10184000029abe00009abe000292be00000c9800f0
:10185000110c9800220c9800330c9800400c980052
:10186000510c9800620c9800730c98000a02b100a9
:101870000802b000ff0f5500efff3e00090078009e
:101880004f05be004f04be00000006000200fa0033
:101890000001780001007800e2ff9f0090009000b6
:1018a0000188a30006003200ea014000930078009e
:1018b000825878000280fb00810978000900370017
:1018c000120020008f80e9006eff07008000780082
:1018d0000080eb000100e00002003200eff897000a
:1018e0000180fb000080fa0000000600e7ff3700df
:1018f00000000600a085200000000600fdff070094
:10190000c0428800b04288000000060080007800d5
:10191000040037003104e00002003a0000005100ea
:1019200000000600010178000108a300f9ff3a0059
:101930008101780031017800f4ef2f0002024200ab
:101940000281ea000201620004082800040161002b
:10195000f7ff320083007800010178003104e000d5
:10196000fdff3a000000510000000600889fbe0005
:101970008a1f7800800478004900900002047800f3
:10198000800f540001003600000478000801780040
:101990006a8544001a00780052ff07001a004400cc
:1019a000000d7800e8844400990c14000048eb0016
:1019b0004f0578004f04be000000060010007800bc
:1019c000b5fc3700900190000388a30001003200ad
:1019d000e6ff37000348a30001003a0029ff070093
:1019e00000000600889fbe008a1f7800000478006f
:1019f000010578000000eb000800e0001a0032004a
:101a0000180090000058a3000c003200ea044400c3
:101a100068009000990f100008003600b809900087
:101a20000001eb008200780008007800030001004c
:101a30000080eb001900e0000b003200740044004d
:101a40000008eb006c0044000008eb006a00440052
:101a50000008eb000000eb000a00e000020032008a
:101a60001800780080fc07004f0578004f04be0086
:101a700000000600889fbe008a1f78000004be0098
:101a80000000eb000800e000290032001800900080
:101a90000058a300120032006a054400680090005c
:101aa0009a0f100008003600b80990000001eb0002
:101ab0008200780008007800030001000080eb003d
:101ac0001a00e0001a003200740044000008eb0025
:101ad0006c0044000008eb006a0044000008eb00c2
:101ae000780a900008109000800f52000600310024
:101af0000002520011002000cfa2de00612bb900cd
:101b00001800780049fc070000022000080040008f
:101b10000008eb007e0044000008eb000000eb0032
:101b20000900e00002003200180078004efc0700b7
:101b30004f0578004f04be000000060080007800ca
:101b40001000200002022000828f500004003200aa
:101b5000e9805000e48f5000010036000000eb00e7
:101b600000000600889fbe008a1f7800800478006d
:101b70000904780088047800394578000a00fb00e1
:101b8000eeff07000000e000f9ff3a00b0c2b3002a
:101b9000804f550005003200d0c2b3008000eb003a
:101ba000804f550005003a00020037008000eb002e
:101bb00001003700110020000804e8000000eb00dd
:101bc000030037006a02b900020052000003b000af
:101bd0003801fb0003fd2f0082814100e98f510095
:101be000f8ff36000100e00001003a000000ea00c2
:101bf0004f0578004f04be0000000600f1fb2f00e7
:101c000080804000f98f500001003e000050a0008d
:101c100000000600f9ff3700881f780000047800f4
:101c200000082000808f50001700350010082000a9
:101c3000808f50000b00340030082000808f50004f
:101c400011003a0092007800688050000009780086
:101c50003002be002003be00049cbe000694be00fd
:101c60000700370092027800648052000009780073
:101c70001000be009e000700009cbe000294be0043
:101c800010002000010037000000eb004f04780036
:101c90000000060084082000848f50001d003200e0
:101ca0000d003c0014082000848f500027003200f3
:101cb00002003c0004082000040037002408200033
:101cc000848f50002a00320044082000848f500086
:101cd00048003a003b003700040a2000848f50007f
:101ce0002c00320004003c0004092000848f5000c6
:101cf00040003a002d003700020c2000828f500077
:101d00001e003200020f2000828f500039003a007e
:101d1000300037009380e9000200e0000500320047
:101d2000810978001102fb00cfa2de00612bb9000f
:101d30002d00370081097800114278000482fb00f1
:101d40008002eb006033b8002700370013027800f0
:101d5000e40052000200e0000a003200810978002d
:101d60001102be004fabde00860378001e00370074
:101d700093027800e88052000e003700930278004a
:101d8000e4805200810978001102be006033b8007f
:101d9000150037009380e90081097800110278006e
:101da000cfa2de00612bb9000f00370013037800cb
:101db000e8005300810978003102be002103be0013
:101dc000090037009380e9000200e00002003200c1
:101dd000f1ff37009380e900810978001102780053
:101de0008002eb006033b8000498be000690be008d
:101df000100005000000050044082000848f5000fa
:101e0000270032000a003c0014082000848f500094
:101e10001c00320024082000848f5000260032006d
:101e200004082000848f50002c003a001c0037006a
:101e300004092000848f50001f00320004003c0081
:101e400084082000848f500024003a0007003700e7
:101e5000040a2000848f500011003200040c20007e
:101e6000848f50001d003a00060037009380e9007f
:101e70008109780091007800010878008248780094
:101e8000150037009380e9008109780091007800ff
:101e900001087800cf91de008288be000e00370076
:101ea0009380e900810978009100780001087800aa
:101eb00082087800080037009380e90081097800e3
:101ec00091007800010878006112b900612bb90017
:101ed0008498be008690be0010000500000005003a
:101ee0000000060085fe0700fdff0700fcff37002d
:101ef000810378001d0007000001be006000b800eb
:101f00000478a30013003a006220e10015003e00af
:101f10000d0039008301d1000281d3008180d300fc
:101f20008301d1000281d3008180d3008301d100dd
:101f30000281d3008180d3000538b000c42add00bf
:101f4000f300b2008381720007f0a70003f0a00045
:101f50000000060083ff2700020020006110b90086
:101f6000f9ff370003ff2700f7ff3700c70ade003d
:101f7000f107b200f50fb20008003200e1cf4200d5
:101f8000020032000170a00024000500810f7000e3
:101f9000010032000408050044000500810f7000b4
:101fa00002003a00140005008502e900000040002c
:101fb00081c04800fcff3b000170a0002400050028
:101fc000020ab900001bb9000200b80081004200fb
:101fd000810043000000060000c0da000000060097
:081fe00000c0da000000060059
:020000040000fa
:101fe8000d0a0000576500006c6300006f6d00006b
:101ff80065200000746f0000207400006865000010
:102008002052000061640000696f00002054000045
:10201800656c000065730000636f00007065000068
:10202800204300006f6e0000747200006f6c0000a7
:102038002073000079730000746500006d200000b3
:102048000d000000727500006e6e0000696e0000e1
:04205800670000001d
:020000040000fa
:10205c000000fa0060802000018020000080e80071
:10206c0001087800608020000180200001087800c1
:10207c0060802000e4004000910078000110a00076
:10208c00640040000108780060802000e4004000fb
:10209c00910078000100a100640040000108780064
:1020ac00608020008040eb00660040000148780012
:1020bc00d009200020108800000028003010880073
:1020cc000822ef008620a9009620a8000080fa00c4
:1020dc00000006000200fa0060802000660040004c
:1020ec00104f78001e4078000080fa0000000600b7
:1020fc000000fa009040800066004000904088008c
:10210c0010c8bf000040e90010e8b70010c8bf00bd
:10211c000004e00003003a004000200070408800fa
:10212c000200370010002000704088000080fa0088
:10213c00000006000200fa00000f78000642a8001a
:10214c00a040800064004000100078000000e00017
:10215c0004003200a04080006400400010007800b1
:10216c001e0878000e28ef000080fa000000060020
:10217c000800fa00000f78000e80e8000148780093
:10218c0064004700020878006600470003087800e6
:10219c006080200064004000100078006100600046
:1021ac000000e0000d003a00640047009001780048
:1021bc000e80e800104178009e007800c08120005d
:1021cc00930007006600470010017800c1812000d1
:1021dc0010c0b30028000700040037006600470059
:1021ec00100078008000eb00010878000080fa00f5
:1021fc00000006000800fa00000f78000e80e800ce
:10220c000148780064004700020878006600470027
:10221c000308780060802000640040001000780003
:10222c00610060000000e0000d003a00640047000f
:10223c00900178000e80e800104178009e00780034
:10224c0060812000540007006600470010017800f0
:10225c006181200010c0b3000700070004003700a4
:10226c0066004700100078008000eb000108780041
:10227c000080fa00000006000600fa00004f78000b
:10228c000e80e8000108780064004700020878001e
:10229c006080200064004000100078006100600045
:1022ac000000e00036003a0064004700100078009f
:1022bc0011002000010878006080200010007800d8
:1022cc000080e8008e80e800110878006080200013
:1022dc00100078001e487800608020001000780004
:1022ec0064004000e4004700110878006080200082
:1022fc0010007800e60040006080200001087800a3
:10230c00608020009000780060802000808f50005a
:10231c0003003a0060802000018020000108780052
:10232c0060802000e4004000910078000110a100c2
:10233c006400400001087800608020000080e80004
:10234c00900078006080200010007800808f500092
:10235c0006003a0060802000e40040009100780004
:10236c000100a0006400400001087800704080006b
:10237c000000e00006003a008620a80004003700a8
:10238c0064004700100078008000eb000108780022
:10239c000080fa00000006000800fa00000f780028
:1023ac000e80e800010878006400470002487800bd
:1023bc0066004700030878006600470010007800ac
:1023cc0000004000800078001e00780001087800b2
:1023dc001e00780010007800800078000100a0003a
:1023ec001e007800010878001e0078000080e800cc
:1023fc00e4004700114878001e007800640040009b
:10240c008e80e800110878000080fa0000000600b9
:10241c000800fa00000f78000e80e8000108780030
:10242c006400470002487800660047000308780003
:10243c006600470010007800000040008000780023
:10244c001e007800010878001e0078000080e8006b
:10245c00e4004700114878001e007800640040003a
:10246c008e80e800110878000080fa000000060059
:10247c000000fa006080200064004000100078002a
:10248c006200600000f0a7000000ea000000ea0013
:10249c004f00de00004078000080fa0000000600cb
:1024ac000000fa00608020006400400010007800fa
:1024bc006100600000f0a7000000ea000000ea00e4
:1024cc004f00de00004078000080fa00000006009b
:1024dc000000fa0080002000801188003222ef00fa
:1024ec00001a2000c011880031e2a8003342a80075
:1024fc000080fa00000006000000fa000000000056
:10250c0090118000610060000000e000fcff3200d0
:10251c0090118000620060000000e00001003200b9
:10252c003222a900b0118000004078000080fa002f
:10253c00000006000200fa00004f780000000000c6
:10254c009111800000202000008060000000e0005d
:10255c00fbff3a001e80fb00a01188000080fa00ef
:10256c00000006000000fa00901180000040780086
:10257c00614060000080fb0000f0a7000000ea0052
:10258c000000ea004f00de00004078000080fa00f6
:10259c00000006000000fa009111800000202000cd
:1025ac00008060000000e00007003a0091118000fc
:1025bc0000402000008060000000e00002003200bb
:1025cc0010002000010037000000eb0000407800f4
:1025dc000080fa00000006000000fa009011800054
:1025ec004800de00614060000080fb0000f0a700a6
:1025fc000000ea000000ea004f00de000040780016
:10260c000080fa00000006000000fa009011800023
:10261c000080fa00000006000000fa0031e2a80079
:10262c003342a8000080fa00000006000000fa0007
:10263c0031e2a9003342a9000080fa000000060034
:10264c000000fa0080002000001188002222ef0018
:10265c00001a20004011880021e2a8002342a800a3
:10266c000080fa00000006000000fa0000000000e4
:10267c0010118000610060000000e000fcff3200df
:10268c0010118000620060000000e00001003200c8
:10269c002222a90030118000004078000080fa004e
:1026ac00000006000200fa00004f78000000000055
:1026bc001111800000202000008060000000e0006c
:1026cc00fbff3a001e80fb00201188000080fa00fe
:1026dc00000006000000fa00101180000040780095
:1026ec00614060000080fb0000f0a7000000ea00e1
:1026fc000000ea004f00de00004078000080fa0085
:10270c00000006000000fa001111800000202000db
:10271c00008060000000e00007003a00111180000a
:10272c0000402000008060000000e0000200320049
:10273c0010002000010037000000eb000040780082
:10274c000080fa00000006000000fa001011800062
:10275c004800de00614060000080fb0000f0a70034
:10276c000000ea000000ea004f00de0000407800a4
:10277c000080fa00000006000000fa001011800032
:10278c000080fa00000006000000fa0021e2a80018
:10279c002342a8000080fa00000006000000fa00a6
:1027ac0021e2a9002342a9000080fa0000000600e3
:1027bc000000fa0040402800001a88000042200067
:1027cc00101a880000f02900201a88004823ef0016
:1027dc0030c02700701a880000032000801a88007f
:1027ec005423ef005623ef005823ef006023ef0033
:1027fc006223ef0080402100050007000080fa00f2
:10280c00000006000000fa000080fa00000006003c
:10281c000200fa00000f78001e0078008042880049
:10282c000080fa00000006000000fa00210480007d
:10283c0000002200008060000000e0000600320072
:10284c00804280000000e0000200320080428000e4
:10285c000000010085a0a9000080fa00000006001d
:10286c000000fa004023a8000080fa0000000600d7
:10287c000000fa004023a9000080fa0000000600c6
:10288c000800fa00e600470080087800101a800063
:10289c004200de007f4060008080fb006400470047
:1028ac0001087800013020000e80e8000108780053
:1028bc000000eb00000f78000f0037001e007800be
:1028cc0000004000e60047009100780000804000c6
:1028dc008e80e80091007800910078000108780063
:1028ec000e80e800100078008080e8000e80e80080
:1028fc00010878001e0fe8009e0078006400470075
:10290c0010007800808f5000ecff36001e0078001d
:10291c000080fa00000006000000fa000021ef0021
:10292c0010002000100888002010280020088800c3
:10293c005268ef000080fa00000006000000fa0068
:10294c0020048000680060000000e00006003200f7
:10295c0053c8bf000040e80053e8b70010c0b300f4
:10296c0052e8b7008460a9000080fa00000006005d
:10297c000200fa00000f78009e0078001108880011
:10298c005268ef000080fa00000006000000fa0018
:10299c00100880000080fa00000006000200fa0017
:1029ac00000f78009e007800010888005268ef0044
:1029bc000080fa00000006000000fa000008800009
:1029cc000080fa00000006000000fa005268ef00d8
:1029dc0005e1a8000080fa00000006000000fa00e3
:1029ec0005e1a9000080fa00000006000200fa00d0
:1029fc002185200091407800014f78001e4078001e
:102a0c000004e000010032005268ef001e40780024
:102a1c000080fa00000006000000fa0053c8bf0056
:102a2c000080fb000080fa00000006000000fa00a5
:0c2a3c005368ef000080fa000000060064
:020000040000fa
:102a48004a08000002000000000000004c080000d6
:102a58000200000002000000ffff00002a0800003a
:102a680020000000000000004e08000002000000e6
:102a780000000000000800002a000000000000001c
:102a8800500800000200000000000000520800008a
:102a98000200000000000000960800001c00000072
:102aa80002000000286e69006c29000068076c00ad
:102ab800094c83006a907400a07ac0000080680006
:102ac800880084006c820000810000005408000027
:102ad800420000000200000058085a00085a080086
:102ae80001000300000000000000000000000000da
:102af80000003a000d0000000000000000de0c009d
:102b0800780c000000000000000000000000000039
:102b180000000000000000000000000000000000ad
:102b2800000000000000000000000000000000009d
:102b3800b2080000020000000000000000000000d1
:020000040000fa
:102b48000000fa00c422ef00100020006016880080
:102b580010082000a016880000f920000016880040
:102b68000080eb0040168800c037200080168800df
:102b78005620ef005820ef005a20ef006e20ef009b
:102b88007020ef007220ef00c622ef00ce22ef0087
:102b980010002000b0168800e024ef00c0002000dc
:102ba80010278800e424ef006200a8006320a80032
:102bb8006620a8006640a800c05e21000700070044
:102bc8008660a9009660a8000080fa000000060050
:102bd8000000fa000080fa00000006000200fa0077
:102be800000f78009660a9009e0078007142880066
:102bf8009660a8000080fa00000006000200fa00b3
:102c0800000f78001e007800f4ff07000080fa002b
:102c1800000006000000fa005f000700d002a900cb
:102c28004a68ef0040ff280054f8070020c0b300ae
:102c38004ae8b70060022900801f780046f80700bc
:102c48008f87e900a016800000407800614060008e
:102c58000004a200614060000080fb006100600089
:102c6800a11680000100a10001007000a0168800d4
:102c78000060fe0000202100a10720002c000700b2
:102c8800ecff37000000fa0000002300203a88001b
:102c98004827ef004e27ef007027ef007227ef005c
:102ca8007427ef007627ef0012002000800720002d
:102cb800a1092000337420008049780081497800f8
:102cc800824978000001eb006004200071052000b3
:102cd800237420008049780081497800824978006f
:102ce8000080fa00000006000000fa00610580007c
:102cf800f0f82f00008060000040a0006005880008
:102d08006105800080ff2f00008060000000a000a7
:102d18006005880061058000f0ff280000806000e1
:102d280000c0a000600588000080fa0000000600ce
:020000040000fa
:102d3800f03fb1000180b10006003500ee03090044
:102d480000000000403fb1000180b100fbff3d00e2
:102d58001000b000203fb0000200350000800900dc
:082d680000000000000006005d
:020000040000fa
:102d70000200fa00000f78009e007800614288008f
:102d8000ffff37000000fa00a082200080077800d3
:102d900020842000000188000080fa000000060066
:102da0000000fa0068ff0700b8ff0700d0ff070027
:102db000cafd0700a9fc070024fe07007ffe0700ec
:0c2dc000d8fe07000080fa0000000600aa
:020000040000fa
:0200000401f009
:04000000ffffff00ff
:020000040000fa
:0200000401f009
:04000800ffffff00f7
:020000040000fa
:0200000401f009
:04000c00f9ff0000f8
:020000040000fa
:0200000401f009
:04001000bbff000032
:020000040000fa
:0200000401f009
:04001400fbff0000ee
:020000040000fa
:0200000401f009
:04001800ffff0000e6
:020000040000fa
:0200000401f009
:04001c00ffff0000e2
:020000040000fa
:0200000401f009
:04002000ffff0000de
:00000001FF
