:020000040000fa
:080000000002040000000000f2
:020000040000fa
:0400080006060000e8
:020000040000fa
:04000c00d00200001e
:020000040000fa
:0400100012030000d7
:020000040000fa
:04001400f0020000f6
:020000040000fa
:0400180032030000af
:020000040000fa
:04001c0006060000d4
:020000040000fa
:0400200006060000d0
:020000040000fa
:0400240006060000cc
:020000040000fa
:0400280006060000c8
:020000040000fa
:04002c0006060000c4
:020000040000fa
:0400300006060000c0
:020000040000fa
:0400340006060000bc
:020000040000fa
:0400380006060000b8
:020000040000fa
:04003c0006060000b4
:020000040000fa
:0400400006060000b0
:020000040000fa
:0400440006060000ac
:020000040000fa
:0400480006060000a8
:020000040000fa
:04004c0006060000a4
:020000040000fa
:0400500006060000a0
:020000040000fa
:04005400060600009c
:020000040000fa
:040058000606000098
:020000040000fa
:04005c000606000094
:020000040000fa
:040060000606000090
:020000040000fa
:04006400060600008c
:020000040000fa
:040068000606000088
:020000040000fa
:04006c00800300000d
:020000040000fa
:040070000606000080
:020000040000fa
:040074005203000033
:020000040000fa
:040078000606000078
:020000040000fa
:04007c000606000074
:020000040000fa
:040080000606000070
:020000040000fa
:04008400060600006c
:020000040000fa
:040088000606000068
:020000040000fa
:04008c000606000064
:020000040000fa
:040090000606000060
:020000040000fa
:04009400060600005c
:020000040000fa
:040098000606000058
:020000040000fa
:04009c000606000054
:020000040000fa
:0400a0000606000050
:020000040000fa
:0400a400060600004c
:020000040000fa
:0400a8000606000048
:020000040000fa
:0400ac000606000044
:020000040000fa
:0400b0000606000040
:020000040000fa
:0400b400060600003c
:020000040000fa
:0400b8000606000038
:020000040000fa
:0400bc000606000034
:020000040000fa
:0400c0000606000030
:020000040000fa
:0400c400060600002c
:020000040000fa
:0400c8000606000028
:020000040000fa
:0400cc000606000024
:020000040000fa
:0400d0000606000020
:020000040000fa
:0400d400060600001c
:020000040000fa
:0400d8000606000018
:020000040000fa
:0400dc000606000014
:020000040000fa
:0400e0000606000010
:020000040000fa
:0400e400060600000c
:020000040000fa
:0400e8000606000008
:020000040000fa
:0400ec000606000004
:020000040000fa
:0400f0000606000000
:020000040000fa
:0400f40006060000fc
:020000040000fa
:0400f80006060000f8
:020000040000fa
:0400fc0006060000f4
:020000040000fa
:0401000006060000ef
:020000040000fa
:0401040006060000eb
:020000040000fa
:0401080006060000e7
:020000040000fa
:04010c0006060000e3
:020000040000fa
:0401100006060000df
:020000040000fa
:0401140006060000db
:020000040000fa
:0401180006060000d7
:020000040000fa
:04011c0006060000d3
:020000040000fa
:0401200006060000cf
:020000040000fa
:0401240006060000cb
:020000040000fa
:0401280006060000c7
:020000040000fa
:04012c0006060000c3
:020000040000fa
:0401300006060000bf
:020000040000fa
:0401340006060000bb
:020000040000fa
:0401380006060000b7
:020000040000fa
:04013c0006060000b3
:020000040000fa
:0401400006060000af
:020000040000fa
:0401440006060000ab
:020000040000fa
:0401480006060000a7
:020000040000fa
:04014c0006060000a3
:020000040000fa
:04015000060600009f
:020000040000fa
:04015400060600009b
:020000040000fa
:040158000606000097
:020000040000fa
:04015c000606000093
:020000040000fa
:04016000060600008f
:020000040000fa
:04016400060600008b
:020000040000fa
:040168000606000087
:020000040000fa
:0402080006060000e6
:020000040000fa
:04020c00d00200001c
:020000040000fa
:0402100012030000d5
:020000040000fa
:04021400f0020000f4
:020000040000fa
:0402180032030000ad
:020000040000fa
:04021c0006060000d2
:020000040000fa
:0402200006060000ce
:020000040000fa
:0402240006060000ca
:020000040000fa
:0402280006060000c6
:020000040000fa
:04022c0006060000c2
:020000040000fa
:0402300006060000be
:020000040000fa
:0402340006060000ba
:020000040000fa
:0402380006060000b6
:020000040000fa
:04023c0006060000b2
:020000040000fa
:0402400006060000ae
:020000040000fa
:0402440006060000aa
:020000040000fa
:0402480006060000a6
:020000040000fa
:04024c0006060000a2
:020000040000fa
:04025000060600009e
:020000040000fa
:04025400060600009a
:020000040000fa
:040258000606000096
:020000040000fa
:04025c000606000092
:020000040000fa
:04026000060600008e
:020000040000fa
:04026400060600008a
:020000040000fa
:040268000606000086
:020000040000fa
:04026c00800300000b
:020000040000fa
:04027000060600007e
:020000040000fa
:040274005203000031
:020000040000fa
:040278000606000076
:020000040000fa
:04027c000606000072
:020000040000fa
:04028000060600006e
:020000040000fa
:04028400060600006a
:020000040000fa
:040288000606000066
:020000040000fa
:04028c000606000062
:020000040000fa
:04029000060600005e
:020000040000fa
:04029400060600005a
:020000040000fa
:040298000606000056
:020000040000fa
:04029c000606000052
:020000040000fa
:0402a000060600004e
:020000040000fa
:0402a400060600004a
:020000040000fa
:0402a8000606000046
:020000040000fa
:0402ac000606000042
:020000040000fa
:0402b000060600003e
:020000040000fa
:0402b400060600003a
:020000040000fa
:0402b8000606000036
:020000040000fa
:0402bc000606000032
:020000040000fa
:0402c000060600002e
:020000040000fa
:0402c400060600002a
:020000040000fa
:0402c8000606000026
:020000040000fa
:0402cc000606000022
:020000040000fa
:0402d000060600001e
:020000040000fa
:0402d400060600001a
:020000040000fa
:0402d8000606000016
:020000040000fa
:0402dc000606000012
:020000040000fa
:0402e000060600000e
:020000040000fa
:0402e400060600000a
:020000040000fa
:0402e8000606000006
:020000040000fa
:0402ec000606000002
:020000040000fa
:0402f00006060000fe
:020000040000fa
:0402f40006060000fa
:020000040000fa
:0402f80006060000f6
:020000040000fa
:0402fc0006060000f2
:020000040000fa
:0403000006060000ed
:020000040000fa
:0403040006060000e9
:020000040000fa
:0403080006060000e5
:020000040000fa
:04030c0006060000e1
:020000040000fa
:0403100006060000dd
:020000040000fa
:0403140006060000d9
:020000040000fa
:0403180006060000d5
:020000040000fa
:04031c0006060000d1
:020000040000fa
:0403200006060000cd
:020000040000fa
:0403240006060000c9
:020000040000fa
:0403280006060000c5
:020000040000fa
:04032c0006060000c1
:020000040000fa
:0403300006060000bd
:020000040000fa
:0403340006060000b9
:020000040000fa
:0403380006060000b5
:020000040000fa
:04033c0006060000b1
:020000040000fa
:0403400006060000ad
:020000040000fa
:0403440006060000a9
:020000040000fa
:0403480006060000a5
:020000040000fa
:04034c0006060000a1
:020000040000fa
:04035000060600009d
:020000040000fa
:040354000606000099
:020000040000fa
:040358000606000095
:020000040000fa
:04035c000606000091
:020000040000fa
:04036000060600008d
:020000040000fa
:040364000606000089
:020000040000fa
:040368000606000085
:020000040000fa
:100400002f8520000eff20000e0188000000000054
:10041000000020000000e000020032000001200087
:100420002002880014000700150207000000e00009
:1004300003003a0040bd2000010020000200370008
:100440000000200001002000810f70000100320038
:1004500014000700000020000000e000020032004d
:1004600000000200000000004e0c0200000000002e
:100470000040da000000fe004440a9000000200017
:100480000000e0000300320000002000a00188000e
:100490004440a800000006008a1f78008b1f7800e7
:1004a0000000060091018800800478000000eb0045
:1004b0001a003700e284440032a0b4009905ba0063
:1004c000e284440032a0b4009906ba00e2844400f9
:1004d00032a0b4000006eb00476fde00fd07b2005b
:1004e000636ce10003003a00ebff07000000eb0043
:1004f0000a003700606ce10004003a00005deb0088
:100500008b05e900fdff3e00040037006168e10053
:10051000010032000086eb000b00070019c7ba008b
:100520001905ba000e04e00003003a000a00e000da
:10053000e0ff3a0000000600fe07b2009e018800be
:100540008a047800f5ff3700395dba008b05e900b1
:100550000c003200295dba008b05e900080032006a
:100560000c00e00003003a00e284440032a0b40032
:10057000f5ff370019ddba008b05e900faff3a00f4
:100580008904e800e184440032a0b40000000600c1
:10059000000000000000000000000000000000005b
:1005a0003600f800809fbe00829fbe00849fbe0080
:1005b000869fbe000000fa008020a9000000eb002a
:1005c0009f0407000080fa004f03be004f02be00e8
:1005d0004f01be004f00be003600f900004006008b
:1005e0003600f800809fbe00829fbe00849fbe0040
:1005f000869fbe000000fa00960407008040a90014
:10060000100020008e0407000080fa004f03be0097
:100610004f02be004f01be004f00be003600f90081
:10062000004006003600f800809fbe00829fbe009a
:10063000849fbe00869fbe000000fa008060a90073
:10064000200020007e0407000080fa004f03be0057
:100650004f02be004f01be004f00be003600f90041
:10066000004006003600f800809fbe00829fbe005a
:10067000849fbe00869fbe000000fa008080a90013
:10068000300020006e0407000080fa004f03be0017
:100690004f02be004f01be004f00be003600f90001
:1006a000004006003600f800809fbe00829fbe001a
:1006b000849fbe00869fbe000000fa0030048000c8
:1006c000680060000000e000060032006042800028
:1006d0000000e000020032006042800000000100e3
:1006e0008660a9000080fa004f03be004f02be00e2
:1006f0004f01be004f00be003600f900004006006a
:100700003600f800809fbe00829fbe00849fbe001e
:10071000869fbe000000fa008620a90041108000dc
:1007200000082000008060000000e00009003200a6
:1007300008e2a9000e28ef00a040800064004000fd
:10074000100078008000eb00010878001428ef000a
:1007500027013700704080008000eb00b2002000cd
:1007600003002000820f5000838f580014013e00c8
:10077000006001000b00370047003700870037009a
:10078000b00037000b013700de003700f100370002
:1007900008013700f3003700090137004200370035
:1007a0006000370060802000640040001000780086
:1007b000620060000000e0000c013a006080200050
:1007c0000080e80010007800a040880060802000d1
:1007d0000080e800100078001040780010e8b700b2
:1007e000608020000080e800100078000080e800b1
:1007f0001000780090408800608020000080e800b1
:1008000010007800e6004000608020000080e800d2
:1008100001087800608020000080e80090007800e7
:1008200060802000808f500004003a00608020002b
:10083000018020000080e80001087800608020002e
:10084000e4004000910078000100a1006400400035
:1008500001087800608020000080e80090007800a7
:100860006080200010007800808f500006003a0061
:1008700060802000e4004000910078000110a0009a
:1008800064004000010878000602a8002000200053
:1008900070408800d60037000622a8002000200003
:1008a00070408800d200370041108000000028000e
:1008b000008060000000e0000a003200608020003c
:1008c00066004000104078008040e8006080200012
:1008d0006600400001487800400020002201070027
:1008e000c3003700104180008000d100f00f2000cd
:1008f00000806000101088001041800061006000de
:10090000004078000004e00003003200b000200046
:1009100070408800b600370030002000704088002a
:10092000b300370041108000000028000080600004
:100930000000e0000a0032006080200066004000f5
:10094000104078008040e800608020006600400091
:10095000014878004000200003010700a400370090
:100960000622a800104180004800de00e60060007a
:10097000000f20000100700010418800104180002d
:100980000000a0001041880010c0b30024e8b700a8
:1009900020002000704088009500370024c8bf0068
:1009a000e14f50000c0032009040800010007800b1
:1009b00010418800904080006400400010007800e2
:1009c00030418800904080000080e80010407800ae
:1009d00028e8b700010037002468ef0011418000cb
:1009e000f00f2000808f5000090036001041800079
:1009f0004800de00e6006000000f200001007000eb
:100a000010108800a0002000704088007800370097
:100a100010418000101088001041800061006000cb
:100a2000004078000004e000030032005000200085
:100a3000704088006e003700300020007040880051
:100a40006b0037004110800000002800008060002b
:100a50000000e0000b0032006080200066004000d3
:100a6000104078008040e800608020006600400070
:100a70000148780009e2a90050002000ba000700f0
:100a80005b00370028c8bf008080fb008100e900c0
:100a9000cf08de00814078000040e90028e8b70078
:100aa0000104e00010003200904080006600400029
:100ab0009040880010c8bf000040e90010e8b7006f
:100ac00010c8bf000004e00003003a00200020002e
:100ad000a5000700460037000622a80020002000dd
:100ae000704088004200370030418000904078001c
:100af0008180fb00111088000000e8003041880070
:100b00003b0037004110800000002800008060009a
:100b10000000e0000b003200608020006600400012
:100b2000104078008040e8006080200066004000af
:100b300001487800400020008b00070009e2a9006e
:100b40002b0037000662a80080002000704088005b
:100b50002700370080002000704088000662a8004f
:100b60002300370030418000011080008140780070
:100b7000014878000000e8003041880028c8bf0024
:100b80000040e90028e8b70028c8bf000004e000e2
:100b90000400320006a2a900600020007040880016
:100ba0000200370006a2a8005e0007000682a80027
:100bb0000f003700200020006b0007000c003700fa
:100bc0006080200066004000104078008040e8000f
:100bd000608020006600400001487800600020002e
:100be0006100070000000000010037000000000065
:100bf0000080fa004f03be004f02be004f01be004e
:100c00004f00be003600f900004006000040da0048
:100c10000000fe000800fa008e81e80080097800dc
:100c20006400470001087800660047000208780069
:100c300066004700100f78000a0037006400470084
:100c40001000780010407800e40047009100780020
:100c50000101e800e4004700820878004201070033
:100c60001e0fe9001e0078000000e000f3ff3a00cc
:100c700066004700100078000080fa0000000600bf
:040c8000000005006b
:020000040000fa
:100c84000000fa0060802000018020000080e8005d
:100c940001087800608020000180200001087800ad
:100ca40060802000e4004000910078000110a00062
:100cb400640040000108780060802000e4004000e7
:100cc400910078000100a100640040000108780050
:100cd400608020008040eb006600400001487800fe
:100ce400d00920002010880000002800301088005f
:100cf4000822ef008620a9009620a8000080fa00b0
:100d0400000006000200fa00608020006600400037
:100d1400104f78001e4078000080fa0000000600a2
:100d24000000fa0090408000660040009040880077
:100d340010c8bf000040e90010e8b70010c8bf00a9
:100d44000004e00003003a004000200070408800e6
:100d54000200370010002000704088000080fa0074
:100d6400000006000200fa00000f78000642a80006
:100d7400a040800064004000100078000000e00003
:100d840004003200a040800064004000100078009d
:100d94001e0878000e28ef000080fa00000006000c
:100da4000800fa00000f78000e80e800014878007f
:100db40064004700020878006600470003087800d2
:100dc4006080200064004000100078006100600032
:100dd4000000e0000d003a00640047009001780034
:100de4000e80e800104178009e007800c081200049
:100df400930007006600470010017800c1812000bd
:100e040010c0b30028000700040037006600470044
:100e1400100078008000eb00010878000080fa00e0
:100e2400000006000800fa00000f78000e80e800b9
:100e34000148780064004700020878006600470013
:100e440003087800608020006400400010007800ef
:100e5400610060000000e0000d003a0064004700fb
:100e6400900178000e80e800104178009e00780020
:100e740060812000540007006600470010017800dc
:100e84006181200010c0b300070007000400370090
:100e940066004700100078008000eb00010878002d
:100ea4000080fa00000006000600fa00004f7800f7
:100eb4000e80e8000108780064004700020878000a
:100ec4006080200064004000100078006100600031
:100ed4000000e00036003a0064004700100078008b
:100ee40011002000010878006080200010007800c4
:100ef4000080e8008e80e8001108780060802000ff
:100f0400100078001e4878006080200010007800ef
:100f140064004000e400470011087800608020006d
:100f240010007800e600400060802000010878008e
:100f3400608020009000780060802000808f500046
:100f440003003a006080200001802000010878003e
:100f540060802000e4004000910078000110a100ae
:100f64006400400001087800608020000080e800f0
:100f7400900078006080200010007800808f50007e
:100f840006003a0060802000e400400091007800f0
:100f94000100a00064004000010878007040800057
:100fa4000000e00006003a008620a8000400370094
:100fb40064004700100078008000eb00010878000e
:100fc4000080fa00000006000800fa00000f780014
:100fd4000e80e800010878006400470002487800a9
:100fe4006600470003087800660047001000780098
:100ff40000004000800078001e007800010878009e
:101004001e00780010007800800078000100a00025
:101014001e007800010878001e0078000080e800b7
:10102400e4004700114878001e0078006400400086
:101034008e80e800110878000080fa0000000600a5
:101044000800fa00000f78000e80e800010878001c
:1010540064004700024878006600470003087800ef
:10106400660047001000780000004000800078000f
:101074001e007800010878001e0078000080e80057
:10108400e4004700114878001e0078006400400026
:101094008e80e800110878000080fa000000060045
:1010a4000000fa0060802000640040001000780016
:1010b4006200600000f0a7000000ea000000ea00ff
:1010c4004f00de00004078000080fa0000000600b7
:1010d4000000fa00608020006400400010007800e6
:1010e4006100600000f0a7000000ea000000ea00d0
:1010f4004f00de00004078000080fa000000060087
:101104000000fa0080002000801188003222ef00e5
:10111400001a2000c011880031e2a8003342a80060
:101124000080fa00000006000000fa000000000041
:1011340090118000610060000000e000fcff3200bc
:1011440090118000620060000000e00001003200a5
:101154003222a900b0118000004078000080fa001b
:10116400000006000200fa00004f780000000000b2
:101174009111800000202000008060000000e00049
:10118400fbff3a001e80fb00a01188000080fa00db
:10119400000006000000fa00901180000040780072
:1011a400614060000080fb0000f0a7000000ea003e
:1011b4000000ea004f00de00004078000080fa00e2
:1011c400000006000000fa009111800000202000b9
:1011d400008060000000e00007003a0091118000e8
:1011e40000402000008060000000e00002003200a7
:1011f40010002000010037000000eb0000407800e0
:101204000080fa00000006000000fa00901180003f
:101214004800de00614060000080fb0000f0a70091
:101224000000ea000000ea004f00de000040780001
:101234000080fa00000006000000fa00901180000f
:101244000080fa00000006000000fa0031e2a80065
:101254003342a8000080fa00000006000000fa00f3
:1012640031e2a9003342a9000080fa000000060020
:101274000000fa0080002000001188002222ef0004
:10128400001a20004011880021e2a8002342a8008f
:101294000080fa00000006000000fa0000000000d0
:1012a40010118000610060000000e000fcff3200cb
:1012b40010118000620060000000e00001003200b4
:1012c4002222a90030118000004078000080fa003a
:1012d400000006000200fa00004f78000000000041
:1012e4001111800000202000008060000000e00058
:1012f400fbff3a001e80fb00201188000080fa00ea
:10130400000006000000fa00101180000040780080
:10131400614060000080fb0000f0a7000000ea00cc
:101324000000ea004f00de00004078000080fa0070
:10133400000006000000fa001111800000202000c7
:10134400008060000000e00007003a0011118000f6
:1013540000402000008060000000e0000200320035
:1013640010002000010037000000eb00004078006e
:101374000080fa00000006000000fa00101180004e
:101384004800de00614060000080fb0000f0a70020
:101394000000ea000000ea004f00de000040780090
:1013a4000080fa00000006000000fa00101180001e
:1013b4000080fa00000006000000fa0021e2a80004
:1013c4002342a8000080fa00000006000000fa0092
:1013d40021e2a9002342a9000080fa0000000600cf
:1013e4000000fa0040402800001a88000042200053
:1013f400101a880000f02900201a88004823ef0002
:1014040030c02700701a880000032000801a88006a
:101414005423ef005623ef005823ef006023ef001e
:101424006223ef00c0a12000050007000080fa003d
:10143400000006000000fa000080fa000000060028
:101444000200fa00000f78001e0078007042880045
:101454000080fa00000006000000fa002104800069
:1014640000002200008060000000e000060032005e
:10147400704280000000e0000200320070428000f0
:101484000000010085a0a9000080fa000000060009
:101494000000fa004023a8000080fa0000000600c3
:1014a4000000fa004023a9000080fa0000000600b2
:1014b4000800fa00e600470080087800101a80004f
:1014c4004200de007f4060008080fb006400470033
:1014d40001087800013020000e80e800010878003f
:1014e4000000eb00000f78000f0037001e007800aa
:1014f40000004000e60047009100780000804000b2
:101504008e80e8009100780091007800010878004e
:101514000e80e800100078008080e8000e80e8006b
:10152400010878001e0fe8009e0078006400470060
:1015340010007800808f5000ecff36001e00780009
:101544000080fa00000006000000fa000021ef000d
:1015540010002000100888002010280020088800af
:101564005068ef000080fa00000006000000fa0056
:1015740020048000680060000000e00006003200e3
:1015840051c8bf000040e80051e8b70010c0b300e4
:1015940050e8b7008460a9000080fa00000006004b
:1015a4000200fa00000f78009e00780011088800fd
:1015b4005068ef000080fa00000006000000fa0006
:1015c400100880000080fa00000006000200fa0003
:1015d400000f78009e007800010888005068ef0032
:1015e4000080fa00000006000000fa0000088000f5
:1015f4000080fa00000006000000fa005068ef00c6
:1016040005e1a8000080fa00000006000000fa00ce
:1016140005e1a9000080fa00000006000200fa00bb
:101624000185200091407800014f78001e40780029
:101634000004e000010032005068ef001e40780012
:101644000080fa00000006000000fa0051c8bf0044
:101654000080fb000080fa00000006000000fa0091
:101664005168ef000080fa00000006000000fa0054
:10167400c422ef001000200060168800100820002b
:10168400a016880000f92000001688000080eb00f6
:1016940040168800c0372000801688005620ef00ce
:1016a4005820ef005a20ef006e20ef007020ef006a
:1016b4007220ef00c622ef00ce22ef0010002000bf
:1016c400b0168800e024ef00c00020001027880036
:1016d400e424ef006200a8006320a8006620a800ac
:1016e4006640a80000b82000070007008660a90033
:1016f4009660a8000080fa00000006000000fa00ce
:101704000080fa00000006000200fa00000f7800d2
:101714009660a9009e007800614288009660a80047
:101724000080fa00000006000200fa00000f7800b2
:101734001e007800f4ff07000080fa000000060095
:101744000000fa0000002300203a88004827ef0038
:101754004e27ef007027ef007227ef007427ef0089
:101764007627ef001200200080072000a109200046
:1017740033742000804978008149780082497800d8
:101784000001eb0060042000710520002374200098
:101794008049780081497800824978000080fa0005
:0417a400000006003b
:020000040000fa
:1017a8004a0800000200000002000000ffff0000dd
:1017b8002a08000020000000000000004c0800007b
:1017c8000200000000000000000800002a000000dd
:1017d800000000004e0800000200000000000000a9
:1017e8005008000002000000000000000000000097
:020000040000fa
:1017f8000000fa0061058000f0f82f00008060000a
:101808000040a000600588006105800080ff2f006f
:10181800008060000000a00060058800610580006d
:10182800f0ff28000080600000c0a000600588006c
:101838000080fa00000006000200fa00000f78009d
:101848009e00780051428800ffff37000000fa0030
:10185800a0822000800778002084200000018800f2
:101868000080fa00000006000000fa007eff070072
:10187800b2ff0700deff070020fe0700fffc07009d
:101888007afe0700d5fe07002eff07000080fa0049
:10189800000006000000fa00f3ff0700ffff370012
:020000040000fa
:0200000401f009
:04000000ffffff00ff
:020000040000fa
:0200000401f009
:04000800ffffff00f7
:020000040000fa
:0200000401f009
:04000c00f9ff0000f8
:020000040000fa
:0200000401f009
:04001000bbff000032
:020000040000fa
:0200000401f009
:04001400fbff0000ee
:020000040000fa
:0200000401f009
:04001800ffff0000e6
:020000040000fa
:0200000401f009
:04001c00ffff0000e2
:020000040000fa
:0200000401f009
:04002000ffff0000de
:00000001FF
